:100000000C945C000C946E000C946E000C946E00CA
:100010000C946E000C946E000C946E000C946E00A8
:100020000C946E000C946E000C946E000C946E0098
:100030000C946E000C946E000C946E000C946E0088
:100040000C943A010C946E000C946E000C946E00AB
:100050000C946E000C946E000C946E000C946E0068
:100060000C946E000C946E00000000080002010069
:100070000003040700000000000000000000000072
:10008000250028002B0000000000240027002A0083
:10009000040404040404040402020202020203032E
:1000A0000303030301020408102040800102040836
:1000B000102001020408102011241FBECFEFD8E049
:1000C000DEBFCDBF21E0A0E0B1E001C01D92AD30A8
:1000D000B207E1F70E9484010C944C030C940000D9
:1000E00090E0FC01EC55FF4F2491FC01E057FF4FDD
:1000F0008491882399F090E0880F991FFC01EA57BA
:10010000FF4FA591B491FC01E458FF4F8591949164
:100110008FB7F894EC91E22BEC938FBF089590E0A9
:10012000FC01E859FF4F3491FC01EC55FF4F24913D
:10013000FC01E057FF4FE491EE2309F43BC0332369
:1001400039F1333091F038F43130A9F0323001F523
:1001500084B58F7D12C0373091F03830A1F0343043
:10016000B9F4809180008F7D03C0809180008F77EB
:10017000809380000DC084B58F7784BD09C08091C5
:10018000B0008F7703C08091B0008F7D8093B00066
:10019000F0E0EE0FFF1FE458FF4FA591B4918FB729
:1001A000F894EC91611103C020952E2301C02E2BF1
:1001B0002C938FBF08953FB7F894809109019091D7
:1001C0000A01A0910B01B0910C0126B5A89B05C0B6
:1001D0002F3F19F00196A11DB11D3FBFBA2FA92FC6
:1001E000982F8827820F911DA11DB11DBC01CD0143
:1001F00042E0660F771F881F991F4A95D1F708952F
:100200008F929F92AF92BF92CF92DF92EF92FF9226
:100210006B017C010E94DB004B015C01C114D10425
:10022000E104F104F1F00E94DB00DC01CB0188194C
:100230009909AA09BB09883E9340A105B10570F34D
:1002400021E0C21AD108E108F10888EE880E83E0A7
:10025000981EA11CB11CC114D104E104F10419F7CA
:10026000DDCFFF90EF90DF90CF90BF90AF909F9049
:100270008F9008951F920F920FB60F9211242F9313
:100280003F938F939F93AF93BF938091050190917C
:100290000601A0910701B09108013091040123E00B
:1002A000230F2D3720F40196A11DB11D05C026E8AE
:1002B000230F0296A11DB11D209304018093050117
:1002C00090930601A0930701B09308018091090162
:1002D00090910A01A0910B01B0910C010196A11D12
:1002E000B11D8093090190930A01A0930B01B09373
:1002F0000C01BF91AF919F918F913F912F910F90E2
:100300000FBE0F901F901895789484B5826084BDBD
:1003100084B5816084BD85B5826085BD85B5816009
:1003200085BD80916E00816080936E001092810087
:100330008091810082608093810080918100816042
:100340008093810080918000816080938000809103
:10035000B10084608093B1008091B000816080938F
:10036000B00080917A00846080937A0080917A0056
:10037000826080937A0080917A00816080937A0015
:1003800080917A00806880937A001092C10088E0A2
:100390000E94700089E00E9470008AE00E94700054
:1003A0008BE00E94700000E010E0C0E0D0E0BE01F1
:1003B0000D2E000C880B990B0E94ED0220E030E717
:1003C0004FE055E40E94E602882309F46DC060E026
:1003D00088E00E948F0060E089E00E948F0060E06A
:1003E0008AE00E948F0061E08BE00E948F0062E053
:1003F00070E080E090E00E94000160E088E00E94F0
:100400008F0060E089E00E948F0061E08AE00E9436
:100410008F0060E08BE00E948F0062E070E080E07F
:1004200090E00E94000160E088E00E948F0061E09F
:1004300089E00E948F0060E08AE00E948F0060E007
:100440008BE00E948F0062E070E080E090E00E940C
:10045000000161E088E00E948F0060E089E00E9476
:100460008F0060E08AE00E948F0060E08BE00E94D5
:100470008F0062E070E080E090E00E9400018091D7
:10048000000190910101A0910201B0910301019638
:10049000A11DB11D8093000190930101A093020161
:1004A000B0930301219683CF60ED77E080E090E088
:1004B0000E940001C0E0D0E0BE010D2E000C880BB0
:1004C000990B0E94ED0220E030E74FE055E40E94D6
:1004D000E602882309F46DC061E088E00E948F0085
:1004E00060E089E00E948F0060E08AE00E948F0057
:1004F00060E08BE00E948F0062E070E080E090E0BE
:100500000E94000160E088E00E948F0061E089E0C5
:100510000E948F0060E08AE00E948F0060E08BE024
:100520000E948F0062E070E080E090E00E94000195
:1005300060E088E00E948F0060E089E00E948F0008
:1005400061E08AE00E948F0060E08BE00E948F00F3
:1005500062E070E080E090E00E94000160E088E0EE
:100560000E948F0060E089E00E948F0060E08AE0D6
:100570000E948F0061E08BE00E948F0062E070E0DB
:1005800080E090E00E9400018091000190910101C3
:10059000A0910201B09103010196A11DB11D8093AC
:1005A000000190930101A0930201B09303012196F1
:1005B00083CF60ED77E080E090E00E9400010115BC
:1005C000110509F4F2CE0E940000EFCE0E9428032C
:1005D00008F481E00895E89409C097FB3EF49095F3
:1005E0008095709561957F4F8F4F9F4F9923A9F00C
:1005F000F92F96E9BB279395F6958795779567959B
:10060000B795F111F8CFFAF4BB0F11F460FF1BC0DE
:100610006F5F7F4F8F4F9F4F16C0882311F096E971
:1006200011C0772321F09EE8872F762F05C066231F
:1006300071F096E8862F70E060E02AF09A95660FD8
:10064000771F881FDAF7880F9695879597F9089591
:10065000990F0008550FAA0BE0E8FEEF16161706D3
:10066000E807F907C0F012161306E407F50798F03B
:10067000621B730B840B950B39F40A2661F0232B54
:10068000242B252B21F408950A2609F4A140A695D0
:0C0690008FEF811D811D0895F894FFCFAD
:00000001FF
